:020000040800F2
:1000000000C00020B5540008015500080155000843
:1000100001550008015500080155000800000000C6
:100020000000000000000000000000000155000872
:10003000015500080000000001550008512D00087E
:100040000155000801550008015500080155000838
:100050000155000801550008015500080155000828
:100060000155000801550008410900080155000824
:100070000155000801550008015500080155000808
:1000800001550008015500080155000801550008F8
:1000900001550008015500080155000801550008E8
:1000A00001550008015500080155000801550008D8
:1000B0000155000800000000000000000155000884
:1000C00001550008015500080155000801550008B8
:1000D0000155000845070008015500084D080008B3
:1000E0000155000801550008000000000000000054
:1000F0000000000000000000000000000000000000
:100100000000000001550008000000000155000833
:100110000000000000000000015500087D090008F3
:100120000155000801550008015500080155000857
:100130000155000800000000000000000000000061
:100140000155000801550008015500080000000095
:100150000155000801550008015500080155000827
:100160000155000801550008015500080000000075
:1001700001550008015500080000000000000000C3
:0C01800001550008015500080155000859
:10018C0010402DE928409FE50030D4E5000053E3F2
:10019C000500001A1C309FE5000053E318009F1562
:1001AC000000A0110130A0E30030C4E51040BDE810
:1001BC001EFF2FE114000020000000001C55000859
:1001CC001C309FE5000053E31EFF2F0110402DE96A
:1001DC0010109FE510009FE50000A0E11040BDE865
:1001EC001EFF2FE100000000180000201C55000825
:1001FC0070B4534A0023137053709370D17801F08C
:10020C00E00163F34711D17013719371517901F0CF
:10021C00C00163F38711517100214A4A11604A4AA7
:10022C0011604A4A11604A4A11604A4A11604A4AAE
:10023C0013704A4A13704A4A13704A4A13704A4A56
:10024C0013704A4A13800120494A10803C22494CC1
:10025C0022700825484C2570484C2370484C23804C
:10026C000625484C25800324474D2C703026474DDD
:10027C002E600F26464D2E607026464D2E601E2693
:10028C00454D2E609F26454D2E60454D2A60454AB2
:10029C001060454A1060454A137053709370D370C8
:1002AC00434A13702825434A1570434A1370434A36
:1002BC0013700A25424A1570424A1370424A137051
:1002CC00424A1360424A1370424AFF261670547019
:1002DC0093700C26D6700226167150719671D471DB
:1002EC00102010725372AB209072C320D0723A4A15
:1002FC004FF6AA6010804FF6BB4050804FF6CC50A2
:10030C0090804FF6DD20D0804FF6EE301081334ACE
:10031C00137053709370D370314A1370314A137049
:10032C004FF4DC70304A1080304A1580304A13701C
:10033C00304A1370537093702F4B196070BC704718
:10034C009C030020AC030020A40300202004002008
:10035C009C02002024040020F4020020160400203B
:10036C0040040020AD020020EE02002048030020D3
:10037C00A6020020EF020020A4020020400300206F
:10038C00D0020020EC020020D70200201004002034
:10039C00F80300201C0400203C0300200004002073
:1003AC0038040020B003002044030020D4020020B5
:1003BC00CF020020A9030020AC020020080400207A
:1003CC00D8020020280400209A030020F00200200C
:1003DC00CE020020B0020020DC0200201804002015
:1003EC00EA020020A80300201404002006040020C8
:1003FC00040400200C040020A802002008B50120F1
:10040C0002F0A8F91E2002F0A5F9032002F0A2F9CF
:10041C00014801F0CFF908BD000004500C4B93F8D3
:10042C00412093F840309A4203D89A1A002A00DCF3
:10043C00704710B5064C03F03F03E15C054802F031
:10044C00A9FB94F84030013384F8403010BD00BF54
:10045C00F8020020003801401B4A92F8411092F833
:10046C004030994203D85B1A002B00DC704710B562
:10047C00164B1B78BBB9144C94F8403003F03F0377
:10048C00E15C134802F086FB94F840300133DBB298
:10049C0084F8403094F84120934234BFD31A9B1A0D
:1004AC00DBB243B110BD0B49094802F07AFB0022C4
:1004BC00064B1A70DFE70A21054802F06BFB01229C
:1004CC00024B1A70EEE700BFB403002004000020BA
:1004DC0000380140C85F00082DE9F04782B0354B69
:1004EC0019689F2952D01E2955D0334B1B68702B8D
:1004FC0056D00F2B59D0DFF8D4A09AF800302F4FDC
:10050C003A782F4C00260096C9B2204603F034FBF3
:10051C00294D2B78DFF8B89099F80020DFF8B480DB
:10052C0098F800100096204603F04AFB9AF8003029
:10053C003A78204F396803310096C9B2204603F04F
:10054C001BFB2B68023399F8002098F800100096DA
:10055C00DBB2204603F034FB39681A4B1B68194494
:10056C0039602B68184A126813442B60C9B2DBB28D
:10057C008A1C4FF478400190981CC0B20090D2B203
:10058C00204603F0D5FB02B0BDE8F0870D4A136896
:10059C005B421360A9E70B4A13685B421360A4E744
:1005AC00094A13685B421360A5E7074A13685B426C
:1005BC001360A0E71004002038040020F80300208A
:1005CC0000300140B0030020440300201C04002034
:1005DC00000400203C03002008B5FFF709FE00F0E2
:1005EC001DF801F00FFA0A4E0A4D64243246002120
:1005FC004FF47A7002F0D2FB2A460221204602F018
:10060C00CDFB054A0321204602F0C8FBEEE700BFF4
:10061C0009040008290400086504000870B582B0BC
:10062C003F4B404A5A60F0213F4A82F82310002485
:10063C009C6007221A6002F035FB02F0F3FB0426E3
:10064C000096234601220B21172001F09DFF022565
:10065C000095234622460B21162001F095FF0096AB
:10066C00234622460B21252001F08EFF00952346C0
:10067C0022460B21242001F087FF009523462246B9
:10068C000121112001F080FF009523462246012113
:10069C00102001F079FF00962346012221462D20DF
:1006AC0001F072FF0096234601220321232001F062
:1006BC006BFF0095234622460121222001F064FFA6
:1006CC001A4D4FF41651284602F008FA4FF4165101
:1006DC00174802F003FA142002F0D4F92146222024
:1006EC0001F0E8FF01F026F80121102001F0E2FFF3
:1006FC000121112001F0DEFFFA2002F02DFB012276
:10070C000C4B1A70C121284602F044FAC12128462C
:10071C0002F040FAC121284602F03CFA02B070BD4A
:10072C0010E000E07E38010000ED00E000480040E1
:10073C0000380140FD03002010B53B4BDB6913F082
:10074C00200F22D0384AD36913F0400FFBD0364B20
:10075C009A8CD2B2354B1A7035490B783548C25445
:10076C000133DBB20B70012B15D0032B1AD0304B9D
:10077C001B78032B09D900222D4B1A702D4B1B789B
:10078C00722B1BD001222C4B1A70274BDB6913F0F8
:10079C00080F22D110BD0378722BF6D00023037002
:1007AC000B70F2E7234B9B78622BEED0214A00238F
:1007BC001370537093701E4A1370E6E71D4B9B78B1
:1007CC00622BDFD11B4B5B78172BDBD8194C2046E7
:1007DC0000F018FC00232360D7E7134CA28C134BBA
:1007EC001A70236A43F0080323621449204602F06E
:1007FC00D8F90D21204602F0CDF9E36913F0100F62
:10080C0003D0236A43F010032362074BDB6913F018
:10081C00040F03D1FF22044B1A62BBE7024A136A8E
:10082C0043F00403136210BD003801406C04002037
:10083C00EA02002018040020A8030020D85F00085A
:10084C0010B5334BDB6913F0200F3ED0304B988C36
:10085C00C0B2304B1870304B1B78012B13D02F4B80
:10086C009B797BB3032B35D12D4A92F8413003F0A1
:10087C003F015054591C01F03F010A2050540233DF
:10088C0082F8413010BD274B1B780BB9254B1870E3
:10089C00254A137821495854D11808710133DBB219
:1008AC001370062B16D1002414701B4B1C702146A0
:1008BC00102001F0FFFE2146112001F0FBFE174B2A
:1008CC009C7110BD00F0D3FC10BD114BDB6913F013
:1008DC00080F00D110BD0E4A136A43F008031362CF
:1008EC0000231A461946022002F092FC00231A46F5
:1008FC000A21022002F08CFC00231A46032102205C
:10090C0002F086FC09490A4802F04BF9E2E700BF05
:10091C00004800400F040020FD0300209C03002031
:10092C00F80200209A03002030000020F05F00083D
:10093C000038014008B5094A094B1A6000223221DF
:10094C00084802F03DF9084A137801331370074A3E
:10095C00536943F01003536108BD00BFBD09000883
:10096C006004002000140040040400200004014036
:10097C0008B50122094B1A70094B1A6922F00102C1
:10098C001A61DA6822F00102DA600649064802F0C0
:10099C0008F9064B1B68984708BD00BFFC030020F4
:1009AC00001400400860000800380140600400207A
:1009BC0008B50221014802F045F808BD004001408D
:1009CC0008B50021112001F075FE0021102001F066
:1009DC0071FE0022014B9A7108BD00BF9C030020E0
:1009EC0038B5264A92F8403003F03F00104492F894
:1009FC0041108B4234BFCB1A5B1A99B200F018FC31
:100A0C001E4A92F8413003F03F01040A5454591C19
:100A1C0001F03F015054023382F84130184B9B795E
:100A2C00EBB9164A92F8403092F841209A4211D014
:100A3C00124C144D03F03F03E15C284602F0AAF877
:100A4C0094F840300133DBB284F8403094F8412004
:100A5C009A42EFD10C4B1B78012B06D038BDFFF717
:100A6C00AFFF642002F002FADBE70022074B1A709A
:100A7C000749084802F095F8F0E700BF580300203A
:100A8C009C0300200048004008040020AC02002019
:100A9C00186000080038014010B5074CC1212046F1
:100AAC0002F078F8C121204602F074F8C1212046EA
:100ABC0002F070F810BD00BF0048004070B5012274
:100ACC000A4B1A700A4B19780A4802F063F80A4C60
:100ADC00E61D084D14F8011F284602F05BF8B442DD
:100AEC00F8D10A21034802F055F870BD0804002023
:100AFC00CE020020003801409B03002070B58AB064
:100B0C0004461E22002102A804F0F6FC00238DF8F6
:100B1C000730FF238DF8083001238DF80A304B4B3A
:100B2C009B78DBB2022B44D0484B9B78002B56D1E0
:100B3C00464BDA784649087802448DF80B20DE786B
:100B4C00F6B2DB78053B052B17DD062305223F4D5E
:100B5C00F11AC9B2695C0DF1280E724402F8201C1E
:100B6C009DF807200132D2B28DF807201A46E97899
:100B7C000133DBB205398A42EADB9DF807300AAA59
:100B8C001344002203F81B2C9DF80D308DF809300E
:100B9C002CBB20B32F499DF8073011F8015B0AAE2E
:100BAC003344134403F81A5C0132D3B29842F2D89E
:100BBC0015E0264BDB78264A1078034402338DF877
:100BCC000B3060B1244B0DF10D020138591C51FA58
:100BDC0080F013F8011F02F8011F9842F9D19DF81B
:100BEC000B300AAA134403F8244C9DF80B309DF8E3
:100BFC0007101A440A3B5B1A02F8233C9DF80B10B1
:100C0C00023989B202A800F013FB9DF80B300AAA36
:100C1C001344020A03F8222C9DF80B300AAA134441
:100C2C0003F8210C9DF80B3073B100240B4D0AAB6B
:100C3C00234413F8201C284601F0ACFF0134E4B225
:100C4C009DF80B30A342F2D80AB070BDB002002060
:100C5C00D8020020DC020020DB020020004800400B
:100C6C0070B584B0FF238DF8043001228DF8052077
:100C7C0000238DF806300C218DF807108DF8083004
:100C8C008DF8092002228DF80A2003228DF80B2002
:100C9C0010228DF80C208DF80D008DF80E308DF88B
:100CAC000F300A2101A800F0C3FA030A8DF80E30A8
:100CBC008DF80F0001AC04AE044D14F8011B28464E
:100CCC0001F068FFB442F8D104B070BD0048004098
:100CDC0038B50D4D286804F0BDFB0C4CC1B2204654
:100CEC0001F058FF0A49286804F00AFA04F0B2FB34
:100CFC000849A1FB00314909642303FB1101C9B266
:100D0C00204601F047FF38BDA802002000480040F3
:100D1C000000C8421F85EB5138B50446124B1870C1
:100D2C00124B1870124B1870124B1870124B187023
:100D3C00124D02464F21284603F032FA22464B212F
:100D4C00284603F02DFA22464D21284603F028FAB6
:100D5C0022464821284603F023FA22464E212846F3
:100D6C0003F01EFA38BD00BFF40200201604002068
:100D7C0040040020AD020020EE020020005C004088
:100D8C00DC304000014B1880704700BF1404002079
:100D9C0080000A30014B1880704700BF0604002009
:100DAC0030B583B00446124A124B1A6002250095E6
:100DBC0000231A4612211F2001F0E6FB04F0030069
:100DCC00C0EB001043000C4C0A330C4A1288294625
:100DDC00204601F049FD2946204601F0CDFD0022B8
:100DEC00074B1988074801F0EBFE03B030BD00BF7C
:100DFC00BD090008600400200040014014040020DC
:100E0C000604002000140040F0B589B0C0238DF812
:100E1C0018305E4B93F801E08DF819E09E788DF850
:100E2C001A60DD788DF81B501C798DF81C405979AF
:100E3C008DF81D1000228DF81E20554B1F6805974C
:100E4C00C2278DF80C708DF80DE08DF80E608DF8C2
:100E5C000F508DF810408DF811108DF812205A6833
:100E6C0002929B680193013808280AD8DFE800F049
:100E7C00050B10151A1F2F3F6F0006A9454801F0EE
:100E8C0090FE09B0F0BD05A9424801F08AFEF8E7D2
:100E9C0003A9404801F085FEF3E702A93D4801F0A3
:100EAC0080FEEEE701A93B4801F07BFEE9E701215A
:100EBC00102001F0FFFB0121112001F0FBFB0322AC
:100ECC00324B9A713449354801F06BFED9E7002159
:100EDC00102001F0EFFB0021112001F0EBFB0022B0
:100EEC002A4B9A712E492D4801F05BFEC9E7274B1E
:100EFC009B79032BC5D1274CC221204601F04AFE19
:100F0C00224D6978204601F045FEA978204601F073
:100F1C0041FEE978204601F03DFE2979204601F09A
:100F2C0039FE6B7903F08001C3F3801241EA821120
:100F3C00C3F30102114303F038021143C3F38003DE
:100F4C0041EA8301C9B2204601F024FE99E70F4B18
:100F5C009B79032B95D10F4CC021204601F01AFE32
:100F6C000A4D6978204601F015FEA978204601F05B
:100F7C0011FEE978204601F00DFE2979204601F09A
:100F8C0009FE6979204601F005FE7AE79C030020F2
:100F9C0050550008004800401C6000080038014013
:100FAC003860000838B5144C144B1978204601F001
:100FBC00F1FD134D2978204601F0ECFD69782046AF
:100FCC0001F0E8FDA978204601F0E4FDE97820461F
:100FDC0001F0E0FD2979204601F0DCFD697920461D
:100FEC0001F0D8FDA979204601F0D4FD0A21204654
:100FFC0001F0D0FD38BD00BF00380140CE0200200A
:10100C009C03002010B582B0C3788DF8073043786C
:10101C008DF806309DF80630DBB2172B00F291806C
:10102C00DFE803F00C11161B20252A2F34393E4320
:10103C00484D52575C616672777C898D9DF807002C
:10104C0002F068F986E09DF8070002F082F981E071
:10105C009DF8070002F09CF97CE09DF80700FFF773
:10106C008FFE77E09DF80700FFF792FE72E09DF887
:10107C000700FFF795FE6DE09DF80720364B5A7080
:10108C0068E09DF80720344B9A7063E09DF80720C8
:10109C00314BDA705EE09DF807202F4B1A7159E046
:1010AC009DF807202C4B9A7154E09DF807202A4B91
:1010BC005A714FE09DF80700FFF7A6FE4AE09DF835
:1010CC000700FFF76FFF45E09DF80700FFF724FED0
:1010DC0040E09DF80700FFF7C3FD3BE09DF80700DB
:1010EC00FFF70CFD36E09DF80700FFF7E7FC31E059
:1010FC001A4A92F841309DF8070003F03F01505412
:10110C00013382F8413025E09DF80700FFF768FCB9
:10111C0020E09DF80720124B1A701BE0BFF34F8F95
:10112C001049CA6802F4E0620F4B1343CB60BFF363
:10113C004F8F00BFFDE79DF807200C4B1A70FFF78F
:10114C00C7FD0B4C0B49204601F02BFD0D21204611
:10115C0001F020FD02B010BD9C03002058030020BC
:10116C00CE02002000ED00E00400FA05A9030020E7
:10117C00003801405060000830B404460144FF20A0
:10118C0008258C4212D014F8013B4340DBB22A46AE
:10119C0013F0800F4FEA430318BF83F03103DBB227
:1011AC00013A184612F0FF02F2D1EAE730BC704760
:1011BC00F0B589B00446C1784D1FEDB2A1F10A0318
:1011CC00002B0FDDDAB21F460020034608AE304478
:1011DC00A65C00F8206C0133DBB2013AD2B218469F
:1011EC00BB42F3DB63791A46481F83420BDA08A82B
:1011FC00024412F8202CE2540133DBB21A46E07898
:10120C0005388342F3DB002323710122A27062199B
:10121C0053709370D3701371537193710735635579
:10122C000531C9B22046FFF7A7FF605509B0F0BDE4
:10123C0070B4044601444FF6FF70082641F22105B4
:10124C008C4212D014F8013B80EA03239BB2324645
:10125C0013F4004F14BF85EA43035B009BB2013AC1
:10126C00184612F0FF02F3D1EAE770BC7047A74AA8
:10127C0013781A441071032B22D8DFE803F0020D07
:10128C001D3FA24A1279FF2A1AD0A04B00221A71D4
:10129C001A706FF0040070479D4A12789B49497987
:1012AC0002F07F0291420BD0984B00221A715A71B6
:1012BC001A706FF003007047944A9279032A14D87D
:1012CC00944A127812B10021934A11702DE9F0431F
:1012DC0083B08E4AD5796A1E93422AD001338B4A49
:1012EC001370012003B0BDE8F083884B00221A7103
:1012FC005A719A711A706FF002007047834A927992
:10130C00022ADDD1814AD279082A08D1814A127881
:10131C00002AD8D101337D4A1370012070477B4BD2
:10132C0000221A715A719A71DA711A706FF00100F9
:10133C0070478046754B9C79022C5DD0AE1EB6B2C0
:10134C00DFF8C891314609F10400FFF771FFADF8E1
:10135C000400AF1EB94499F8040048EA0020ADF827
:10136C000600BDF8042092B2BDF806309BB29A423A
:10137C007BD185B1DFF8ACE1681EC0B2013070449E
:10138C007346DFF8A4C1A3EB0E0213F8011B0CF893
:10139C0002108342F7D1002C40F088805B4B5A1925
:1013AC0012F8012C5B79934265D0584D2B7A01339E
:1013BC00DBB22B722B445B7A6B713146281DFFF725
:1013CC0037FF2F44030A3B71EB792B44D870EB7930
:1013DC0053B1524E2B191979304601F0DBFB013415
:1013EC00E4B2EB79A342F5D80020484B18704C4A74
:1013FC0013680133136075E7A91E1C4689B2181DCA
:10140C00FFF716FF2C44A37848EA0328404526D161
:10141C0065B1444C681EC0B2013020442346424D95
:10142C001A1B13F8011BA9549842F9D1374C72239B
:10143C0084F82430237A84F82530622384F826300B
:10144C00637A84F8273004F12400FFF7DBFD0020D9
:10145C0060622070324A13680133136042E7002245
:10146C002A4B1A704FF0FF303CE70022274B1A70C2
:10147C004FF0FF3036E7254B197A0B445B7A9342D9
:10148C0093D1224C722384F82430635D84F8253088
:10149C00622384F8263025446B7884F8273004F1D5
:1014AC002400FFF7AFFD002363629DE7012C9BD165
:1014BC00164A531959786B1F5B1A13441B795279CE
:1014CC009A4233D0114C237A0133DBB2237223447A
:1014DC005B7A63713146201DFFF7AAFE2744030A8D
:1014EC003B71E3792344D870E379002B3FF47CAF54
:1014FC000024064D094E2B191979304601F04AFB90
:10150C000134E4B2EB79A342F5D86DE73C0000203E
:10151C00CE020020A9030020AC02002000480040AD
:10152C00F002002040000020B0020020124A107A85
:10153C000244527A9A42C5D10F4B5B5D002B7FF46B
:10154C0053AF00293FF450AF0C4B93F841200C4B98
:10155C0018440C4C5318DBB2084E10F8011F04F859
:10156C00011B02F03F0571550132D2B29A42F4D1FF
:10157C00024A82F8413037E73C000020B4030020D7
:10158C00450000204C0300200C4B1A6842F001026D
:10159C001A60002199601A6822F0A85222F41022D5
:1015AC001A604FF48052DA601A6822F480221A60B2
:1015BC0099614FF00062024B9A6070470010024034
:1015CC0000ED00E02F4B1B6813F0080F2D4B07BFED
:1015DC00D3F89430C3F303231B68C3F303132A4AD1
:1015EC0052F82310274A936803F00C030C2B45D8B0
:1015FC00DFE803F007444444164444441A4444448A
:10160C001E00224B19601F4B9A682049C2F303122B
:10161C001D4B134493F830200B68D3400B6070477C
:10162C001B4A1A4B1A60EEE71A4A184B1A60EAE783
:10163C00144BDA68DB68C3F30213013302F00302C4
:10164C00022A04D0032A15D0B1FBF3F302E0104AAE
:10165C00B2FBF3F30B4AD168D268C1F3062103FB4A
:10166C0001F3C2F3416201325200B3FBF2F3074AB9
:10167C001360C8E7074AB2FBF3F3EBE7034B1960BF
:10168C00C1E700BF001002405C55000808000020B4
:10169C000024F40000127A0010B5234BDA6C42F4EB
:1016AC000052DA64D3F8882022F04052C3F8882024
:1016BC00D3F8882042F04052C3F888201B4A936824
:1016CC0043F4801393601A4CA36823F00053A36077
:1016DC00A36843F08053A360642001F03DFBA36832
:1016EC0043F00043A36022469368002BFCDA104CB5
:1016FC00E36C43F48063E364E36823F40053E36036
:10170C00E36843F00043E360E36843F48053E36031
:10171C00142001F021FBA36843F00103A360A3682C
:10172C0043F00803A36010BD0010024000030450F6
:10173C000000045010B51C4BDA6C42F40052DA6411
:10174C00D3F8882022F04052C3F88820D3F88820A0
:10175C0042F04052C3F88820144A936843F4801333
:10176C009360134CA36823F00053A360A36843F069
:10177C008053A360642001F0EFFAA36843F00043A8
:10178C00A36022469368002BFCDB094B1A6B22F0FA
:10179C000F021A631A6B22F4F8621A631A6B42F482
:1017AC0080721A6310BD00BF001002400003045089
:1017BC000000045038B50446836843F0040383608A
:1017CC00322001F0C9FA256C322001F0C5FA2368E9
:1017DC0043F008032360A8B238BD00BF104A936DD4
:1017EC0043F400039365436843F000734360C3689C
:1017FC0023F40043C360036823F4002303600368ED
:10180C0023F400330360074B0361C36823F4FF63C5
:10181C0023F00603C360036843F0010303607047C1
:10182C00001002409129700070B4049E4468750D3C
:10183C0005F4806545F07F7545F45E3545F47F759C
:10184C0045F0030524EA050442EA0343039A1343D3
:10185C000B4333432343436070BC7047884205D12C
:10186C0041F28833013BFDD1FF20704700207047C7
:10187C0001238361C36943F01003C361C36943F45B
:10188C008073C361C36943F02003C36183698369B7
:10189C0070472DE9F04182B0551EEDB2032D03D9EE
:1018AC00FF2002B0BDE8F0811F461646884604466C
:1018BC00FFF7DEFFA3694FEA48085FFA88F8254B6B
:1018CC00019300220092334641462046FFF7ACFFBD
:1018DC00A36913F0010FFBD01F4A536843F4005364
:1018EC0053606DB26EB1EB0027FA03F3DBB2A36267
:1018FC00A26912F0010FFBD0013D6DB2B5F1FF3FB3
:10190C00F1D1A36913F0400FFBD0144B01934FF0AE
:10191C00007300930223002241462046FFF784FF08
:10192C00A36913F0040FFBD0616AA36913F0040FD1
:10193C00FBD0626AD2B2A36913F0200FFBD0E3692B
:10194C0043F02003E36142EA0123089A138000204C
:10195C00A7E700BF00200080005C0040002400804E
:10196C002DE9F04383B0BDF82870551EEDB2032D60
:10197C0003D9FF2003B0BDE8F0831E46904689468C
:10198C000446FFF775FFA3694FEA49011C4B01930D
:10199C004FF00073009308F10203002201F0FE01E6
:1019AC002046FFF741FFA36913F0010FFBD06DB286
:1019BC00B8F1000F0DD0EB0026FA03F3DBB2A362F3
:1019CC00A26912F0010FFBD0013D6DB2B5F1FF3FE2
:1019DC00F1D13B0AA362A36913F0010FFBD0FFB254
:1019EC00A762A36913F0010FFBD0A36913F0200FBA
:1019FC00FBD0E36943F02003E3610020BAE700BFAA
:101A0C000020008010B582B00224009400231A46F6
:101A1C001021282000F0B8FD009400231A46102154
:101A2C00292000F0B1FD009400231A4610212A2031
:101A3C0000F0AAFD009400231A4610212B2000F080
:101A4C00A3FD009400231A4610212C2000F09CFDCD
:101A5C00009400231A461021322000F095FD0B4B08
:101A6C001A6E42F480621A66DA6842F48012DA6006
:101A7C00D3F8882042F00062C3F8882044F686121E
:101A8C00A3F568435A6002B010BD00BF00100240BD
:101A9C0010B4184BC5249C639960104340F48060CB
:101AAC00D86062B94FF4803312494A6B12F0840F3C
:101ABC000FD1013BF9D10F4B5B6B012014E04FF4BC
:101ACC0080330C494A6B12F0450F02D1013BF9D11E
:101ADC00F1E7084A526B12F0040F07D143B1054BE2
:101AEC00586B00F00100400010BC70470120FBE770
:101AFC000120F9E700280140324B0340002B5FD056
:101B0C000028ACBF00230B2300F08042002A18BF32
:101B1C00132300F00052002A18BF142300F0805247
:101B2C00002A18BF152300F00062002A18BF1623E4
:101B3C0000F08062002A18BF172300F08072002A80
:101B4C0018BF182300F40002002A18BF192300F450
:101B5C008002002A18BF1A2300F40012002A18BFB2
:101B6C001B2300F48012002A18BF1C2300F400224F
:101B7C00002A18BF1D2300F48022002A18BF1E2340
:101B8C0000F40032002A18BF1F2300F48032002A10
:101B9C0018BF202300F40042002A18BF212300F4B0
:101BAC008042002A18BF222300F40052002A18BFDA
:101BBC00232300F00800002818BF24231846704780
:101BCC000023FBE708E0FFFD08B51A4B5B690B60CF
:101BDC00013805282CD8DFE800F0030307161D2474
:101BEC001846FFF789FF08BD124B5A6912BA0A60F2
:101BFC009A6912BA4A60DA6912BA8A601B6A1BBA0D
:101C0C00CB60002008BD0B4B1B693F2B0CBF002089
:101C1C00072008BD074B1B69032B0CBF00200720B6
:101C2C0008BD044B1B69082B0CBF0020072008BD06
:101C3C00072008BD0028014000B583B040220821D0
:101C4C001020FFF725FF01A90120FFF7BDFF03B00E
:101C5C005DF804FB10B582B0044640220821102028
:101C6C00FFF716FF01A90120FFF7AEFF014610B1E7
:101C7C00084602B010BD294BD98A402209043720EE
:101C8C00FFF706FF01A90120FFF79EFF0146002880
:101C9C00EED1234B40F22A629A63224A5A620822FE
:101CAC009A623320D86240220021FFF7F1FE01A98D
:101CBC000120FFF789FF01460028D9D1184B40F2CB
:101CCC002A6007E05A6B12F4001F1CBFD3F8802067
:101CDC0044F8042B5A6B0242F4D0114B5B6B03F0AB
:101CEC000803002B18BF0E210D4B5B6B03F0020396
:101CFC00002B18BF0F210A4B5B6B03F02003002B4A
:101D0C0018BF1021064B5B6B03F40073002B18BF3C
:101D1C00122140F2FF52024B9A63A9E78004002083
:101D2C0000280140009F240010B582B00446154BDA
:101D3C001B78032B1BD0134BD98A40220904372064
:101D4C00FFF7A6FE01A90120FFF73EFF0346A8B945
:101D5C00002C4FF040020CBF214602210620FFF759
:101D6C0097FE01A90120FFF72FFF034630B9064B60
:101D7C00586820F4C050204358600023184602B025
:101D8C0010BD00BF8004002000280140034A5368A6
:101D9C0023F0FF0318435060704700BF0028014038
:101DAC0030B4604A92F82A309B0913751278032AD2
:101DBC007DD05C4A92F82D101161002B64D1114634
:101DCC0092F82F4092F830309B0203F4406092F866
:101DDC003320520002F0060291F8315091F8323063
:101DEC009B0943EA85030343013391F8340042EA2B
:101DFC00D012023293408B6004F00F04012303FADB
:101E0C0004F4CC60474B9968DA6802FB01F25A6023
:101E1C001B78032B73D0434B93F83A201A7693F824
:101E2C003B1093F83C2042EA01225A8393F83D2060
:101E3C001A7793F83E205A7793F83F209A7793F8C5
:101E4C004020DA7793F8412083F8202093F8422041
:101E5C0083F8212093F8431093F84420120442EAAB
:101E6C00016293F846100A4393F8451042EA0122A6
:101E7C005A6293F8471093F8482042EA0122C2F3C1
:101E8C000B021A8530BC7047264A92F831301B047D
:101E9C0003F47C1192F8320092F8333043EA0023B9
:101EAC000B434FF40071D16001339360AAE71D49D5
:101EBC0091F82D300B6191F830301B0203F4407314
:101ECC0091F83120D41891F832209209013291F80E
:101EDC002F3003F00F0001238340CB6002EB840210
:101EEC0091F833305B0003F0060391F8344003EBB8
:101EFC00D413023302FA03F38B6083404B60094B1B
:101F0C0000221A765A832A2119774D205877987710
:101F1C004320D87783F8201083F821205A621A8541
:101F2C00B0E700BF80040020F0B585B0994B0020CD
:101F3C0058601861D86018751870D8820322964BB7
:101F4C001A6002460146FFF7A3FD40224FF4D571FB
:101F5C000820FFF79DFD28B10446012833D0204608
:101F6C0005B0F0BD69460620FFF72EFE08B1072428
:101F7C00F5E7009BC3F30803B3F5D57F01D0062426
:101F8C00EDE74FF6FE7440250026844F2A46314675
:101F9C003720FFF77DFD69460120FFF715FE00286D
:101FAC005ED12A4639462920FFF772FD6946042086
:101FBC00FFF70AFE002855D1009B002B5ADB013C91
:101FCC00E4D10D24CBE7402200213720FFF760FD40
:101FDC004FF6FE7440250026714F2A4631463720B5
:101FEC00FFF756FD69460120FFF7EEFD00283BD1B7
:101FFC002A4639462920FFF74BFD01280BD06946AC
:10200C000420FFF7E1FD88BB009B002B3BDB013C70
:10201C00E3D10924A3E74FF6FE74614F4026012556
:10202C00324639462846FFF733FD69460420FFF750
:10203C00CBFDE8B9009B002BC0F2A780013CEFD18F
:10204C0009248CE740224FF480310320FFF720FD58
:10205C000446002883D169460320FFF7B5FD34E020
:10206C0007247CE707247AE7072478E7072476E738
:10207C00072474E703F08043002B14BF04220222D0
:10208C00444B1A7002E00122424B1A70C02200210C
:10209C000220FFF7FDFC044600287FF460AF414CA2
:1020AC0021460320FFF790FD14F83A3C032BC9D0CE
:1020BC00402200210320FFF7EBFC044600287FF4AC
:1020CC004EAF69460520FFF77FFDBDF80210314B7E
:1020DC00D982C02209040920FFF7DAFC0446002843
:1020EC007FF43DAF304C21460320FFF76DFDFFF729
:1020FC0057FE4FF44072284B5A6034F8141C40229F
:10210C0009040720FFF7C4FC69460220FFF75CFDB9
:10211C00044600287FF423AF1E4BD98A40220904C1
:10212C003720FFF7B5FC69460120FFF74DFD04464B
:10213C0000287FF414AF402200212A20FFF7A8FCCE
:10214C0069460120FFF740FD044600287FF407AFE5
:10215C00104B1B78032B0AD0144D2846FFF77AFD41
:10216C0015F84A3C013BDBB2022B3FF6F8AE40229D
:10217C004FF400711020FFF78BFC69460120FFF72C
:10218C0023FD041E18BF0824E9E60322014B1A7034
:10219C007CE700BF8004002000280140000010C034
:1021AC0000001080BA040020AA040020CA040020F9
:1021BC0000B583B0402200210C20FFF769FC01A977
:1021CC000120FFF701FD03B05DF804FB10B582B0F0
:1021DC000446094BD98A402209040D20FFF758FC0C
:1021EC0001A90120FFF7F0FC0198C0F343232370F1
:1021FC00FFF782FC02B010BD80040020F0B583B064
:10220C000C461546570A00223D4BDA623D4B1B78B3
:10221C00042B08BF400A40F2FF52394B9A63012F3E
:10222C0014D9402201461220FFF732FC40F22A3624
:10223C0001A90120FFF7C8FC014600285DD1304BF5
:10224C00314A5A629D629322DA6209E040220146C9
:10225C001120FFF71DFC40F22A66E9E72E421DD142
:10226C005D6B15F4004FF9D0D3F880202260D3F8C1
:10227C0080206260D3F88020A260D3F88020E260D6
:10228C00D3F880202261D3F880206261D3F88020BB
:10229C00A261D3F88020E2612034DFE7194B1B7870
:1022AC00032B04D0012F02D9FFF782FF014605F062
:1022BC000803002B18BF0E2105F00203002B18BFDA
:1022CC000F2105F02003002B18BF102105F4007519
:1022DC00002D18BF12210A4B5B6B13F4001F08D0A2
:1022EC00074BD3F8802044F8042B5A6B12F4001FD0
:1022FC00F7D140F2FF52024B9A63084603B0F0BD8F
:10230C000028014080040020009F24002DE9F043A8
:10231C0083B00D4690464FEA52290022644BDA6294
:10232C00644B1B78042B08BF400AB9F1010F1DD96F
:10233C00402201461920FFF7ABFB40F21A3701A9E6
:10234C000120FFF741FC0646002840F0AC80584BBA
:10235C0040F2FF529A63584A5A62C3F8288091227D
:10236C00DA6218F01F0F2CD1002209E0402201463E
:10237C001820FFF78DFB40F21A67E0E7274265D182
:10238C005C6B14F4804FF9D04245F7D22968C3F83E
:10239C0080106968C3F88010A968C3F88010E968D8
:1023AC00C3F880102969C3F880106969C3F88010DC
:1023BC00A969C3F88010E969C3F880102032203570
:1023CC00DCE74FF0000C3A4A03E00CEB8E0C274292
:1023DC003CD1546B14F4804FF9D0C445F7D2A8EB20
:1023EC000C0EBEF11F0F15D81EF0030F4FEA9E0EF8
:1023FC0018BF0EF1010EBEF1000FE6D029460023E6
:10240C0051F8040BC2F8800001339E45F8D105EB5E
:10241C008305DAE72B68C2F880306B68C2F880302D
:10242C00AB68C2F88030EB68C2F880302B69C2F818
:10243C0080306B69C2F88030AB69C2F88030EB69D0
:10244C00C2F880300CF1200C2035C0E7194B1B78FA
:10245C00032B05D0B9F1010F02D9FFF7A9FE0646EF
:10246C0004F00803002B18BF0E2604F00203002B07
:10247C0018BF0F2604F01003002B18BF112604F40C
:10248C000074002C18BF12260DF10300FFF79EFEFE
:10249C0028B99DF80330063BDBB2012BF4D940F28E
:1024AC00FF52034B9A63304603B0BDE8F08300BF84
:1024BC000028014080040020808D5B0010B4174977
:1024CC0088421ED01649884221D0016841EAC202D6
:1024DC0002600268134303600368029A43EAC21362
:1024EC000360036843F004030360036843F4407320
:1024FC00036003680360036843F04003036010BC8F
:10250C007047084C216E41F480512166DDE7054C83
:10251C00A16D41F48041A165D7E700BF00300140B7
:10252C000038004000100240836813F0020FFBD00B
:10253C000173704770B506464C1E0D1D14F8011F33
:10254C003046FFF7F1FFAC42F8D170BDCAB2090AB0
:10255C00836813F0020FFBD00173836813F0020F32
:10256C00FBD00273704700230373836813F0010FD1
:10257C00FBD0007B704700230373836813F0010FBB
:10258C00FBD0007B704700BFF0B5059E474200F0C2
:10259C000F0507F00F0758BF7D4207460028B8BF4C
:1025AC0000F10F07381104280BD8DFE800F00354B2
:1025BC005B6269003A4CE06C40F00100E0644FF063
:1025CC009044D4F80CE06F000320B840C0430EEAEE
:1025DC00000EC4F80CE0D4F80CE0BB4043EA0E0348
:1025EC00E36063684FF0010E0EFA05FE23EA0E035A
:1025FC0063606368AA401A436260A3680340A360E7
:10260C00042E03D0A368BE401E43A66003293EDD02
:10261C002368184020602268022303FA07F7174347
:10262C0027602B46002DB8BFEB1DDB1004EB830499
:10263C00226AAB000F20984022EA00022262073582
:10264C000E2D226AA1F1040188BF203B01FA03F38D
:10265C0013432362F0BD124CE06C40F00200E064C6
:10266C00104CAEE70E4CE06C40F00400E0640E4CF5
:10267C00A7E70B4CE06C40F00800E0640B4CA0E7C3
:10268C00074CE06C40F01000E064094C99E72368BB
:10269C00184020602368B94019432160F0BD00BF89
:1026AC00001002400004004800080048000C0048DC
:1026BC000010004803460028B8BF00F10F031B119F
:1026CC00424200F00F0002F00F0258BF5042042BA0
:1026DC0036D8DFE803F0030E18222C00002908BFBF
:1026EC0010231844012303FA00F04FF09043986133
:1026FC00704700290CBF102300230344012098408D
:10270C00104B9861704700290CBF10230023034421
:10271C00012098400C4B9861704700290CBF102386
:10272C000023034401209840084B9861704700290E
:10273C000CBF10230023034401209840044B9861E4
:10274C00704700BF0004004800080048000C004817
:10275C0000100048434200F00F0203F00F0358BF73
:10276C005A4203460028B8BF00F10F031B11042B7B
:10277C002CD8DFE803F0030C141C24004FF090411C
:10278C004869012303FA02F242404A61704710493A
:10279C004869012303FA02F242404A6170470D492D
:1027AC004869012303FA02F242404A6170470A4920
:1027BC004869012303FA02F242404A617047074913
:1027CC004869012303FA02F242404A61704700BF94
:1027DC000004004800080048000C004800100048A5
:1027EC00424200F00F0302F00F0258BF5342024660
:1027FC000028B8BF00F10F021211042A28D8DFE814
:10280C0002F0030B121920004FF0904212690120C4
:10281C0098401040D84070470F4A126901209840E8
:10282C001040D84070470D4A126901209840104062
:10283C00D84070470A4A1269012098401040D8408D
:10284C007047084A1269012098401040D8407047E0
:10285C006FF00200704700BF0004004800080048F9
:10286C00000C00480010004830B43D4C22603D4C38
:10287C00A04214D03C4CA04217D0B0F1804F1AD0DB
:10288C000224846202EB4204384A92FBF4F2C262E4
:10289C000139032922D8DFE801F014394755344DAA
:1028AC002C6E44F400642C66EAE7314D2C6E44F433
:1028BC0080342C66E4E72E4DAC6D44F00104AC651D
:1028CC00DEE703FB02F22B4B83FB0213D217C2EBA6
:1028DC0063124263836943F070038361036A43F4B8
:1028EC004C5343F033030362436C43F4004343649F
:1028FC00036823F010030360036823F06003036094
:10290C00036843F00103036030BC704703FB02F221
:10291C00184B83FB0213D217C2EB631282638369D9
:10292C0043F4E0438361D9E703FB02F2114B83FBD1
:10293C000213D217C2EB6312C263C36943F0700374
:10294C00C361CBE703FB02F20A4B83FB0213D217E2
:10295C00C2EB63120264C36943F4E043C361BDE795
:10296C00D4040020002C01400040014000B4C404F9
:10297C00001002401F85EB51026A01398B000321C4
:10298C009940114301627047036A43F44C5303624C
:10299C007047036A23F44C5303627047012906D035
:1029AC00022915D0032924D0042933D07047224B97
:1029BC00196801EB4101214B93FBF1F302FB03F28C
:1029CC001F4B83FB0213D217C2EB63124263704797
:1029DC00194B196801EB4101184B93FBF1F302FB06
:1029EC0003F2174B83FB0213D217C2EB6312826301
:1029FC007047114B196801EB4101104B93FBF1F33C
:102A0C0002FB03F20E4B83FB0213D217C2EB6312D1
:102A1C00C2637047084B1B6803EB4303074991FBE8
:102A2C00F3F302FB03F2064B83FB0213D217C2EB48
:102A3C0063120264BAE700BFD404002000B4C404DB
:102A4C001F85EB51036A01398A000321914023EA67
:102A5C000103036270470023C36183614363836393
:102A6C00C36303640362C362044B984200D0704793
:102A7C00034A136E23F400631366F8E7002C01403D
:102A8C000010024000B583B0114A136E43F00103ED
:102A9C00136604230093002301221946FFF774FDEB
:102AAC000C4B1A6842F010021A609A6842F010023D
:102ABC009A60DA6822F01002DA600122A3F58063D2
:102ACC00DA604FF48062044B1A6003B05DF804FBCB
:102ADC00001002400004014000E100E0274B984246
:102AEC0006D0274B984211D0264B98421CD07047E9
:102AFC00254A136E43F4804313662022234B5A60FD
:102B0C00234B93FBF1F11D4BD9601AE01E4A936DD8
:102B1C0043F40033936540221C4B5A601C4B93FBCF
:102B2C00F1F1174BD9600CE0174A936D43F48023F5
:102B3C0093658022154B5A60154B93FBF1F1114BA9
:102B4C00D960036823F080530360036823F4805337
:102B5C000360036823F480630360436823F44053E9
:102B6C004360036843F00C030360036843F0010304
:102B7C000360036843F020030360B8E700380140AA
:102B8C0000440040004800400010024000E100E01A
:102B9C0000B4C404C36913F0400FFBD089B20185A3
:102BAC00704770B50D46097849B106460024304689
:102BBC00FFF7F0FF0134E4B2295D0029F7D170BDB5
:102BCC0010B50023304C2370304C2370B0F1804F83
:102BDC0030D02F4B984233D02E4B984236D02E4BC0
:102BEC00984239D049F63F4383624900C1625AB9D1
:102BFC00036843F008030360436943F00103436136
:102C0C00036923F001030361C36843F00103C3604C
:102C1C00B0F1804F26D0204B98422CD0036843F063
:102C2C00010303601A4B98422AD003F58063984243
:102C3C0026D010BD194CA36D43F00103A365D1E759
:102C4C00164C236E43F480332366CBE7134C236E70
:102C5C0043F400332366C5E7104CA36D43F0200307
:102C6C00A365BFE74FF080520D4B1A60036843F029
:102C7C0001030360DDE74FF40002094B5A60F5E7EE
:102C8C00012000F069F810BD34040020FC03002082
:102C9C00004001400044014000140040001002407C
:102CAC0000E100E0244B1B6813F4003F08D1224ADA
:102CBC00136843F480331360136813F4003FFBD0A4
:102CCC001D4B1A6822F080721A60DA6842F0030217
:102CDC00DA60DA6822F07002DA60DA6822F4FE4216
:102CEC00DA60DA6842F4A052DA60DA6842F0807294
:102CFC00DA601A6842F080721A601A46136813F090
:102D0C00007FFBD00D4B1A6822F007021A601A687C
:102D1C0042F003021A60A3F580539A6842F41162E0
:102D2C009A609A6842F003029A601A6822F48072E0
:102D3C001A600348704700BF001002400020024098
:102D4C0050505000034B1A6801321A605A68013215
:102D5C005A607047640000200022054B5A601A46E6
:102D6C0053688342FCD30022014B5A60704700BF6A
:102D7C00640000204FF4FA5303FB00F008B1013853
:102D8C00FDD17047014B1868704700BF64000020EC
:102D9C00014B1868704700BF6400002038B5104B19
:102DAC000B441B7A43B10E4B1C6803EB81031B696C
:102DBC00E31A834209D838BD094B186803EB81022A
:102DCC001061194401230B7238BD0C46044D29685F
:102DDC0005EB840319619047291900230B72EAE76C
:102DEC0064000020014B5B68181A7047001000E06B
:102DFC00034B5868034BA3FB00308009704700BF9E
:102E0C00001000E0CDCCCCCC014B5868704700BF13
:102E1C00001000E0024B5B68014B5B68181A7047AE
:102E2C00001000E0084BDB6813F0807F0BD1064AE2
:102E3C00D36843F08073D360044B00225A601A6845
:102E4C0042F001021A607047F0ED00E0001000E063
:102E5C00054B596800EB800000011A4653685B1A59
:102E6C009842FBD8704700BF001000E008B54FF443
:102E7C007A7303FB00F0FFF7EBFF08BD2DE9F04779
:102E8C00884692460E4B5F6800EB800004011E469C
:102E9C000C4D4FF0010903E0C04708B900232B602B
:102EAC007368DB1B9C4209D92B68012BF4D0C047FB
:102EBC000128F5D1C5F80090D047F1E7BDE8F087BF
:102ECC00001000E094000020101E1DDD30B40D1821
:102EDC004FF0604404E011F8013C23708D4212D095
:102EEC000131D4F8803E13F0010FF7D0D4F8003E36
:102EFC0013F0010FF2D02368002BECD100BF236834
:102F0C00002BFBD0E7E730BC70470178C1B14FF024
:102F1C00604203E0117010F8011F89B1D2F8803EB5
:102F2C0013F0010FF7D0D2F8003E13F0010FF2D0DE
:102F3C001368002BEED100BF1368002BFBD0E9E720
:102F4C0070470000F0B590F800E0244901F5C8770F
:102F5C000B46C1F1700102E01033BB423AD0CC18E1
:102F6C0093F870207245F7D193F8715042789542DE
:102F7C00F2D193F8725082789542EDD193F8735058
:102F8C00C2789542E8D193F8745002799542E3D116
:102F9C0093F8755042799542DED193F87650827948
:102FAC009542D9D193F87750C2799542D4D193F800
:102FBC007850427A9542CFD193F87950827A9542E3
:102FCC00CAD193F87A50C27A9542C5D1034B1C44AE
:102FDC00A07EF0BD4FF0FF30F0BD00BF9800002088
:102FEC00F0B5ADF5017D524C4FF400722146002036
:102FFC00FFF704F94F4B187023783BB963782BB962
:10300C00A3781BB94C4B1B78042B02D00DF5017D1A
:10301C00F0BD94F8C731002BF8D094F8C65145EAAE
:10302C0003254FF4007221466802FFF7E7F8414E82
:10303C003070227BE37A03EB0223404A1380627BDD
:10304C003F4B1A70E37BA17B01EB032189B23D4B13
:10305C001980207C3C4B187094F8253094F826206D
:10306C00120402EB032294F824301A4494F827300B
:10307C0002EB0363354A136094F82D7094F82E20FC
:10308C00120402EB072294F82C703A4494F82F7037
:10309C0002EB07622E4F3A6003FB005358182D4B7E
:1030AC0018600D442C4B1D604FF4007221464002F9
:1030BC00FFF7A4F830702948FFF744FF0446B0F13D
:1030CC00FF3FA3D01A4E244B18684FF400723146C0
:1030DC004002FFF793F8174D2870194B1B78023CF0
:1030EC001C4A126804FB03241D4B1C604FF4007235
:1030FC0031466002FFF782F82870694680A86B465B
:10310C005A1A03F8012B8342FAD10024144E094DAC
:10311C004FF400726946306804EB4020FFF7F6F874
:10312C00287004F50074B4F5005FF1D16EE700BFB0
:10313C009800002050040020800400205A04002035
:10314C00480400206A040020580400205C0400207D
:10315C004C0400207004002044040020606000082F
:10316C0064040020034B1A88034B03EB8000805C43
:10317C00704700BF6A0400209800002070B582B030
:10318C000C46154633B3214B5B5C134113F0010F16
:10319C0027D1022A13D00223009300231A460521BB
:1031AC00FFF7F2F919482B1D012202FA03F1035D16
:1031BC0023EA010302FA05F51D43055511E0012927
:1031CC00E9D10223009300231A4612211E20FFF797
:1031DC00DBF9E7E7161D0D4B5B5C334113F0010F78
:1031EC0001D002B070BD0223009300231A460121C6
:1031FC00FFF7CAF90549012202FA06F60B5D1E43D8
:10320C0002FA05F526EA05060E55EAE70C0400203D
:10321C00F8B505460F4614461E4610F0010F63D054
:10322C000123324621463846FFF7A8FFC4B1012CD2
:10323C0027D0022C64D1002E46D0731EDBB2012B9A
:10324C005ED8EB08314C03EB430340F6B832314601
:10325C002046FFF709FB31462046FFF78DFBF8BDF2
:10326C000136EB0803EB430340F6B83231464FF01E
:10327C008040FFF7F9FA31464FF08040FFF77CFBB6
:10328C00F8BD012E10D9022E3AD1EB08204C03EBDD
:10329C00430340F6B83201212046FFF7E5FA01213D
:1032AC002046FFF769FBF8BD0336EB08174C03EB20
:1032BC00430340F6B83231462046FFF7D5FA314683
:1032CC002046FFF759FBF8BDEB0803EB430340F630
:1032DC00B83204214FF08040FFF7C6FA04214FF0BA
:1032EC008040FFF749FBF8BD0023324621463846A3
:1032FC00FFF744FFEB0804D100213846FFF7DAF959
:10330C00F8BD01213846FFF7D5F9F8BD002C014076
:10331C000040014008B500F007039A1E012A06D9A7
:10332C001A1F012A09D9063B012B0CD908BD002311
:10333C001A461946FFF76CFF08BD012300221946F7
:10334C00FFF766FF08BD022300221946FFF760FF56
:10335C00ECE708B500F007039A1E012A06D91A1FDC
:10336C00012A09D9063B012B0CD908BD00230122E7
:10337C000A21FFF74DFF08BD01231A460B21FFF769
:10338C0047FF08BD022301221E21FFF741FFECE796
:10339C0008B500F007039A1E012A06D91A1F012A44
:1033AC0009D9063B012B0CD908BD002302220321AD
:1033BC00FFF72EFF08BD012302220821FFF728FF8B
:1033CC0008BD02231A460921FFF722FFECE700BFD4
:1033DC0010B4441A9DF8040000FB04F0521A90FB40
:1033EC00F2F0181AC0B210BC7047F0B583B00646A4
:1033FC000F4614461D46019300921B4B032262217B
:10340C0000F08CFD01950094322308227321304684
:10341C0000F0C8FC019500943A2303227821304631
:10342C0000F000FD1149384600F047FDB7F57A7FF2
:10343C0009D3019500940D4B03227E21304600F0F8
:10344C006DFD03B0F0BD01950094084B03227E2165
:10345C00304600F063FD01950094054B0322962144
:10346C00304600F05BFDECE70C000020E805002086
:10347C0010000020F0B585B00446084616461F46DD
:10348C000E4B1B68ADF80C301B0C8DF80E300C4D30
:10349C00294600F012FD0197009603AB032226216A
:1034AC00204600F03BFD019700962B460322342169
:1034BC00204600F033FD05B0F0BD00BFA455000858
:1034CC00B4060020B0F5167F3AD9B0F5487F3DD947
:1034DC00B0F57A7F40D9B0F5966F43D9B0F5AF6FA0
:1034EC0046D9B0F5C86F49D9B0F5E16F4CD9B0F5F4
:1034FC00FA6F4FD940F69803984251D9B0F5166F30
:10350C0054D940F62823984256D9B0F52F6F59D983
:10351C0040F6B83398425BD9B0F5486F5ED940F6A7
:10352C004853984260D9B0F5616F63D940F6D863BF
:10353C00984265D811224D4B1A7040F6D8607047EE
:10354C0001224A4B1A704FF4167070470222474BF7
:10355C001A704FF4487070470322444B1A704FF4A2
:10356C007A7070470422414B1A704FF49660704782
:10357C0005223E4B1A704FF4AF60704706223B4B4E
:10358C001A704FF4C86070470722384B1A704FF40A
:10359C00E16070470822354B1A704FF4FA6070479F
:1035AC000922324B1A7040F6980070470A222F4BB2
:1035BC001A704FF4166070470B222C4B1A7040F6A1
:1035CC00282070470C22294B1A704FF42F6070473B
:1035DC000D22264B1A7040F6B83070470E22234B42
:1035EC001A704FF4486070470F22204B1A7040F647
:1035FC004850704710221D4B1A704FF46160704791
:10360C00B0F57A6F05D81222184B1A704FF47A6005
:10361C00704741F26803984210D941F23013984236
:10362C0012D941F2F813984214D9B0F5965F17D815
:10363C0016220E4B1A704FF49650704713220B4BF8
:10364C001A7041F2680070471422084B1A7041F24C
:10365C00301070471522054B1A7041F2F810704764
:10366C001722024B1A7041F288307047D8040020A0
:10367C002DE9F04F85B0814693461F460846FFF76B
:10368C0021FF03901E4D05F1050A0024DFF87C8014
:10369C005E4610E02A78033A019700964346D2B270
:1036AC000021484600F05CFC164B1B781C44A4B26D
:1036BC000135554520D0DFF858B041463BF8140091
:1036CC0000F0FBFB3BF81430B3F57A7FE2D22A789A
:1036DC00033A019700970C4BD2B20121484600F0F7
:1036EC003FFC2A78033A019700964346D2B2072151
:1036FC00484600F035FCD7E7039805B0BDE8F08FDD
:10370C00DC040020D804002010000020F00500206C
:10371C00F80500202DE9F04F85B0064603911446BC
:10372C0019469DF838809DF83C909DF844B0BDF842
:10373C004870BDF84CA05B4A4FF4C87341F2BA30E4
:10374C0022F8023F32339BB28342F9D100972346D1
:10375C00039A304600F010FA00979DF840304A4624
:10376C004146304600F02CFA08F10C05EDB2A945A3
:10377C000ED3A4EB0B03DBB2029300972346029A01
:10378C002946304600F0F8F90C35EDB2A945F4D2D3
:10379C00039B9946E31A102B1ADDC3445FFA8BF393
:1037AC000293414DDFF80CB14FF47843009323465C
:1037BC00029A4146304600F003FA2B785A1C2A70C4
:1037CC000BF80340143CE4B2A4EB0903102BEBDC24
:1037DC0053463A464FF4C8713046FFF749FF334D14
:1037EC0029460A2000F069FB314CA279CDF804A0DF
:1037FC0000972B462121304600F0B2FBA279CDF880
:10380C0004A0009739233221304600F0CBFAA2797C
:10381C00CDF804A0009738233E21304600F0C2FAC0
:10382C00A279CDF804A0009737234A21304600F046
:10383C00B9FAA279CDF804A0009736235621304668
:10384C0000F0B0FAA279CDF804A0009735236221DC
:10385C00304600F0A7FAA279CDF804A000973423E3
:10386C006E21304600F09EFAA279CDF804A00097A4
:10387C0033237A21304600F095FAA279CDF804A0D2
:10388C00009732238621304600F08CFAA279CDF8CD
:10389C0004A0009731239221304600F083FA05B042
:1038AC00BDE8F08FF605002098020020B806002035
:1038BC000C000020DC0400202DE9F04F87B0BDF88F
:1038CC0044E0BDF848400494BDF84C90374C657802
:1038DC00511A8D4216D06C1C34494C70344921F865
:1038EC0015E0324949784C1E002C5CDD059393465B
:1038FC00074603902E4D05EB41054FF416704FF61D
:10390C00E07611E04DB10121294E4C1C36F81470B3
:10391C0026F81170E1B28D42F7D2013D244921F80D
:10392C0015E0DEE7013C09D035F8021D8142F9D9DA
:10393C004B4632463846FFF79BFEF3E71B4B93F89A
:10394C0001A00AF1FF33002B2DDD194B03EB4A08C4
:10395C00CAF1010A00259DF84060033EF6B2A0F5BD
:10396C00C8773B464F4699460BEB0504E4B20097EB
:10397C003346059A2146039800F0FEF838F8022DDC
:10398C00A2F5C87202EB8202120192FBF9F2B21A92
:10399C00049B00933346D2B22146039800F0ECF816
:1039AC00013DAA45E0D107B0BDE8F08F9802002098
:1039BC00E404002010B50446A36813F0800FFBD17B
:1039CC004FF08052044B9A612046FEF7ADFDA36880
:1039DC0013F0800FFBD110BD0004004808B54FF464
:1039EC008052024B9A61FEF79FFD08BD000400480F
:1039FC0008B54FF48052024B9A61FEF7A7FD08BD43
:103A0C0000040048F8B504460F4616461D462A2108
:103A1C00FFF7D0FF00212046FFF7E0FF3946204694
:103A2C00FFF7DCFF00212046FFF7D8FF3146204688
:103A3C00FFF7D4FF2B212046FFF7BCFF00212046C7
:103A4C00FFF7CCFF29462046FFF7C8FF0021204690
:103A5C00FFF7C4FF9DF818102046FFF7BFFF2C217D
:103A6C002046FFF7A7FFF8BD2DE9F04F87B00446BD
:103A7C000E4604919046039205939DF840B0BDF814
:103A8C0044500093FFF7BEFF3746C24646454CDC18
:103A9C0029462046FFF7ACFF01365645F8DDCDF838
:103AAC0000B0059E334604990A462046FFF7AAFF4C
:103ABC00D9465E4557DCB04629462046FFF798FFAD
:103ACC0008F10108C845F7DDCDF800B05B46039A54
:103ADC00DDF8108041462046FFF794FF039A90458D
:103AEC001ADC29462046FFF783FF01375745F8DDDE
:103AFC00CDF800B0059B03990A462046FFF782FFDC
:103B0C00B14506DB29462046FFF772FF01364E45CC
:103B1C00F8DD07B0BDE8F08FCDF800B0059B039938
:103B2C000A462046FFF76EFFECE7CDF800B0059E85
:103B3C00334604990A462046FFF764FFD9465E4592
:103B4C00B9DDCDF800B05B46039D2A4604992046AA
:103B5C00FFF758FFCDF800B0059B2A4629462046B2
:103B6C00FFF750FFD5E7CDF800B05B46039A0499F8
:103B7C002046FFF747FFB4E7F0B585B00646174679
:103B8C001C46BDF82850009313460A46FFF73AFF2F
:103B9C008DF80F709DF80F30DBB29C420ED3294686
:103BAC003046FFF725FF9DF80F300133DBB28DF85F
:103BBC000F309DF80F30DBB29C42F0D205B0F0BD57
:103BCC002DE9F04383B0074689469046BDF828603E
:103BDC000093FFF717FF4C464546C14506DC3146BE
:103BEC003846FFF705FF0134AC42F8DD03B0BDE801
:103BFC00F0832DE9F04F85B00546144699469DF8A3
:103C0C0038809DF83CB0BDF840A0BDF844600093EE
:103C1C0013460A46FFF7F6FE8DF80F409DF80F305D
:103C2C00DBB2994526D35F460EE051462846FFF796
:103C3C00DFFE9DF80F300133DBB28DF80F309DF8AD
:103C4C000F30DBB2994515D39DF80F30DBB2B3FBC7
:103C5C00F8F208FB123313F0FF0FE6D1BBF1000FA3
:103C6C00E3D0002431462846FFF7C2FE0134BC42A3
:103C7C00F8D1DAE705B0BDE8F08F2DE9F04F85B04B
:103C8C0005460F4614469DF838909DF83CB0BDF89B
:103C9C0040600396BDF844600093FFF7B3FEA74263
:103CAC001CDCB846A2465F4607E003992846FFF79E
:103CBC009FFE08F10108D04510DC98FBF9F409FBD4
:103CCC001484002CF1D1BBF1000FEED03146284604
:103CDC00FFF78EFE0134BC42F8D1E6E705B0BDE833
:103CEC00F08F70B582B004461D464E1C531CDBB2DF
:103CFC0000931346F2B2FFF785FE29462046FFF7E4
:103D0C0077FE02B070BD70B582B006460D468023BA
:103D1C0000930023A0221946FFF774FE4FF4A04431
:103D2C0029463046FFF764FE013CF9D102B070BD64
:103D3C002DE9F04383B00646894690461D469DF812
:103D4C002840BDF82C700094FFF75CFEA8EB090826
:103D5C00651B013508FB0555002D07DB0024394692
:103D6C003046FFF745FE0134AC42F8DD03B0BDE848
:103D7C00F083F0B583B006460F461546222200921A
:103D8C0000231946FFF73EFE55B100231C46F95C93
:103D9C003046FFF723FE0134A4B22346AC42F6D3DF
:103DAC0003B0F0BD2DE9F04F85B00546BDF838A045
:103DBC00BDF83C90A3F1200000EB8000184B0344AD
:103DCC00186802901B798DF80C30481DD31DDBB29E
:103DDC0000931346C2B22846FFF714FE4FF00008BA
:103DEC004FF0010B0DF10D0708E049462846FFF78F
:103DFC00FFFD08F10108B8F1070F0ED00BFA08F619
:103E0C0002AC14F8013B33420CBF494651462846DC
:103E1C00FFF7EEFDA742F4D1E7E705B0BDE8F08F60
:103E2C00A85500082DE9F04387B006460D46BDF8AD
:103E3C003880BDF83C70203B03EB830103EB41035E
:103E4C0018490B4403AC1868596803C419899B7A48
:103E5C002180A370E91D02F10B03DBB20093134622
:103E6C00CAB229463046FFF7CDFD03AD0DF1170957
:103E7C0006E039463046FFF7BBFD01354D450ED007
:103E8C0000242B78234113F0010F0CBF3946414617
:103E9C003046FFF7ADFD0134072CF2D1E9E707B04E
:103EAC00BDE8F0838857000800F00F0301EB0321F5
:103EBC00000901EB003080B2704770B40246002557
:103ECC00154EA6FB0203DB0803EB8303A2EB4303B3
:103EDC00DBB26C1CE4B20D44092B8CBF373330338E
:103EEC00DBB22B70A6FB02322546D208E9D10A19A7
:103EFC0000230B5564080CD04B1E013C51FA84F482
:103F0C00587812F8015C03F8015F02F8010DA34226
:103F1C00F6D1084670BC7047CDCCCCCC2DE9F04F17
:103F2C0083B01E46BDF83070BDF834B01B78A3B119
:103F3C009146884682460025ECB208EBC401CDF8C8
:103F4C0004B000974A46C9B25046FFF76BFF0134E4
:103F5C00E4B2335D0135002BEED103B0BDE8F08F38
:103F6C002DE9F04F83B01E46BDF83070BDF834B06B
:103F7C001B78ABB19146884682460025ECB2C4EB67
:103F8C00C4014144CDF804B000974A46C9B250462A
:103F9C00FFF708FF0134E4B2335D0135002BEDD19E
:103FAC0003B0BDE8F08F08B500210420FEF782FBBA
:103FBC0008BD08B501210420FEF77CFB08BD30B517
:103FCC0083B00446154600211046FEF773FB012111
:103FDC002846FEF76FFBFFF7E6FF01212046FFF7AF
:103FEC00E9FC0C20FEF7B8FE11212046FFF7E2FC9D
:103FFC000C20FEF7B1FE3A212046FFF7DBFC052131
:10400C002046FFF7EBFC36212046FFF7D3FC60215E
:10401C002046FFF7E3FCB1212046FFF7CBFC0F2134
:10402C002046FFF7E5FC0F212046FFF7E1FC0F21AE
:10403C002046FFF7DDFC1F212046FFF764FE2921F7
:10404C002046FFF7B7FC4FF4784300931423462225
:10405C000A212046FFF7B4FDFFF7ABFF03B030BDDC
:10406C0010B5044601F0F6F980B200F0DBFF014612
:10407C00204600F0F3FE034901F042F801F0EAF9A2
:10408C00C0B210BD0000C84210B42C230370084B02
:10409C00A3FB0143DB0803EB8304A1EB44013031A8
:1040AC004170303383700023C37010BC704700BF65
:1040BC00CDCCCCCC00B583B000920F230122FDF700
:1040CC00E8FB03B05DF804FB00B583B0009200235D
:1040DC000122FDF7DEFB03B05DF804FB30B585B0C3
:1040EC0015460DF10E03009300230122FDF7D1FBC1
:1040FC0018B1FF24204605B030BD0446BDF90E00B2
:10410C00001100F08FFF4FF0765100F0F9FF28609E
:10411C00F0E708B540F30B1000F084FF4FF0765138
:10412C0000F0EEFF08BD08B540F30B1000F07AFF6D
:10413C004FF0765100F0E4FF01F05EF940B208BD9B
:10414C0030B585B015460DF10E0300930023012206
:10415C00FDF79FFB18B1FF24204605B030BD044687
:10416C00BDF80E00FFF7DFFF2870F5E708B500F08B
:10417C009BFB0022044B00F0F1FB00F03DFE00B273
:10418C00000180B208BD00BF0000304000B583B014
:10419C00009201231A46FDF77CFB03B05DF804FB8B
:1041AC0000B583B0009201231A46FDF7D9FB002815
:1041BC0014BFFF20002003B05DF804FB70B584B081
:1041CC0004460D4616460DF10E02FFF7DFFF10B147
:1041DC00FF2004B070BD3602BDF80E3023F480739E
:1041EC0033439BB2009301231A4629462046FDF720
:1041FC00B7FB08B1FF20ECE703AA29462046FFF7DE
:10420C00C5FF08B1FF20E4E7BDF80C3023F4807340
:10421C0033430CBFFF200020DBE770B584B00546AC
:10422C000E4614460DF10E02FFF7B0FF10B1FF2041
:10423C0004B070BD6403BDF80E3023F4C0432343B7
:10424C009BB2009301231A4631462846FDF788FBA2
:10425C0008B1FF20ECE703AA31462846FFF796FF8A
:10426C0008B1FF20E4E7BDF80E0020F4C04040EA9E
:10427C000402BDF80C00824214BFFF200020D7E7D7
:10428C0030B585B004460D460DF10E02FFF77EFFEA
:10429C0010B1FF2005B030BDBDF80E306FEA4343BE
:1042AC006FEA53439BB2009301231A4629462046DA
:1042BC00FDF756FB08B1FF20ECE703AA2946204680
:1042CC00FFF764FF08B1FF20E4E7BDF80E306FEA9A
:1042DC0043436FEA5343BDF80C009BB2984214BFA2
:1042EC00FF200020D6E770B584B005460E46144674
:1042FC000DF10E02FFF74AFF10B1FF2004B070BDA4
:10430C006402BDF80E3023F4007323439BB2009378
:10431C0001231A4631462846FDF722FB08B1FF203F
:10432C00ECE703AA31462846FFF730FF08B1FF201F
:10433C00E4E7BDF80E0020F4007040EA0402BDF87A
:10434C000C00824214BFFF200020D7E770B584B068
:10435C0005460E4614460DF10E02FFF717FF10B17D
:10436C00FF2004B070BDA402BDF80E3023F48063AE
:10437C0023439BB2009301231A4631462846FDF78E
:10438C00EFFA08B1FF20ECE703AA31462846FFF705
:10439C00FDFE08B1FF20E4E7BDF80E0020F48060BC
:1043AC0040EA0402BDF80C00824214BFFF2000203A
:1043BC00D7E770B584B005460E4614460DF10E02D3
:1043CC00FFF7E4FE10B1FF2004B070BDE402BDF8AD
:1043DC000E3023F4C05323439BB2009301231A469F
:1043EC0031462846FDF7BCFA08B1FF20ECE703AADA
:1043FC0031462846FFF7CAFE08B1FF20E4E7BDF8B6
:10440C000E0020F4C05040EA0402BDF80C008242B9
:10441C0014BFFF200020D7E700B583B00092022321
:10442C000122FDF736FA03B05DF804FB70B584B0D9
:10443C0005460E460023ADF80E30104600F034FA57
:10444C000022114B00F08AFA00F0D6FC04B22401D1
:10445C00A4B200940223012231462846FDF780FACB
:10446C0010B1FF2004B070BD0DF10E02314628468C
:10447C00FFF7D2FF08B1FF20F4E7BDF80E00A04211
:10448C0014BFFF200020EDE70000304000B583B0E2
:10449C00009203230122FDF7FCF903B05DF804FB45
:1044AC0070B584B005460E460023ADF80E301046AC
:1044BC0000F0FAF90022114B00F050FA00F09CFCCD
:1044CC0004B22401A4B200940323012231462846ED
:1044DC00FDF746FA10B1FF2004B070BD0DF10E02CD
:1044EC0031462846FFF7D2FF08B1FF20F4E7BDF8AC
:1044FC000E00A04214BFFF200020EDE7000030406A
:10450C0038B504460D464FF04342FFF78FFF08B114
:10451C00FF2038BD044A29462046FFF7C1FF00287A
:10452C0014BFFF20002038BD00E0FF427860000877
:10453C00000000201400002014000020BC06002005
:10454C00021121E2000000EA023123E230402DE9A1
:10455C008140A0E18350A0E1050034E1020030016C
:10456C0000C0941102C09511C4CAF011C5CAF01153
:10457C008C00000AA44AA0E1A55A74E0005065B270
:10458C00060000DA054084E0022020E0033021E040
:10459C00000022E0011023E0022020E0033021E0A3
:1045AC00360055E33040BD881EFF2F81020111E318
:1045BC000116A0E101C6A0E321168CE10100000A5E
:1045CC00000070E20010E1E2020113E30336A0E107
:1045DC0023368CE10100000A002072E20030E3E295
:1045EC00050034E16900000A014044E220E075E274
:1045FC00050000BA12CEA0E1320590E00010A1E255
:10460C00130E90E05315B1E0060000EA205045E28D
:10461C0020E08EE2010052E313CEA0E102C08C2315
:10462C00530590E0C31FB1E0025101E20200005AB1
:10463C0000C07CE20000F0E20010E1E2010651E370
:10464C000F00003A020651E30600003AA110B0E157
:10465C006000B0E16CC0A0E1014084E2842AA0E1DA
:10466C00010572E36B00002A02015CE3A0C0B001FB
:10467C000000B0E2041AA1E0051081E13040BDE871
:10468C001EFF2FE18CC0B0E10000B0E00110A1E0F2
:10469C00010611E3014044E2F2FFFF1A000031E38E
:1046AC001430A0133430A0030010A0010000A003AC
:1046BC000120A0E1010852E32228A021103043225E
:1046CC00010C52E32224A02108304322100052E3B3
:1046DC002222A02104304322040052E30230432260
:1046EC00A2304330A23143E0202053E2070000AA5D
:1046FC000C2092E2040000DA14C082E20C2062E288
:10470C00110CA0E13112A0E1040000EA142082E2B5
:10471C0020C062D21112A0E1301C81D11002A0D1B4
:10472C00034054E0041A81A0051081A13040BDA8BB
:10473C001EFF2FA10440E0E11F4054E20F0000AA2D
:10474C000C4094E2060000CA144084E2202064E28B
:10475C003004A0E1110280E1311485E13040BDE864
:10476C001EFF2FE10C4064E2202064E23002A0E145
:10477C00110480E10510A0E13040BDE81EFF2FE1DF
:10478C003104A0E10510A0E13040BDE81EFF2FE18F
:10479C00000034E3013623E20116210201408402B9
:1047AC00015045128FFFFFEAC4CAF0E1C5CAF011EF
:1047BC001D00000A050034E1020030010400000A6B
:1047CC0000C094E10310A0010200A0013040BDE83C
:1047DC001EFF2FE1030031E10010A0130000A01315
:1047EC003040BD181EFF2F11A4CAB0E10400001AFE
:1047FC008000B0E10110B1E0021181233040BDE82E
:10480C001EFF2FE1014594E2011681323040BD3884
:10481C001EFF2F31025101E27F1485E30F1681E355
:10482C000000A0E33040BDE81EFF2FE1C4CAF0E158
:10483C000310A0110200A011C5CAF0010130A01193
:10484C000020A011014690E10356920103003101B2
:10485C00021781133040BDE81EFF2FE1000030E34A
:10486C000010A0031EFF2F0130402DE9014BA0E3E7
:10487C00324084E20050A0E30010A0E386FFFFEA80
:10488C00000030E30010A0031EFF2F0130402DE983
:10489C00014BA0E3324084E2025110E2000060427E
:1048AC000010A0E37CFFFFEA8020B0E1C211A0E180
:1048BC006110A0E1020EA0E1FF341212FF043313C9
:1048CC000E1321121EFF2F11000032E3FF043313CD
:1048DC001EFF2F0130402DE90E4DA0E3025101E2E5
:1048EC000211C1E36CFFFFEA012090E11EFF2F01D2
:1048FC0030402DE90050A0E3060000EA012090E1D1
:10490C001EFF2F0130402DE9025111E20100005A27
:10491C00000070E20010E1E2014BA0E3324084E2BF
:10492C0021CBB0E144FFFF0A0320A0E3ACC1B0E10E
:10493C0003208212ACC1B0E103208212AC2182E0D0
:10494C00203062E210C3A0E13002A0E1110380E14B
:10495C003112A0E1024084E037FFFFEA70402DE9FC
:10496C00FFC0A0E307CC8CE3214A1CE0235A1C10A7
:10497C000C0034110C0035117500000B054084E05F
:10498C00036021E08C1AC1E18C3AC3E1015690E13D
:10499C0003569211011681E3013683E31D00000AD0
:1049AC0090C28EE00050A0E391E2A5E0022106E265
:1049BC0090E3A5E00060A0E39153A6E000003CE387
:1049CC0001E08E13FF4044E2020C56E3034CC4E2B8
:1049DC000200002A8EE0B0E10550B5E00660A6E0CA
:1049EC00861582E1A51A81E18505A0E1AE0A80E178
:1049FC008EE5A0E1FDC054E2070C5C831100008A37
:104A0C0002015EE3A0E0B0010000B0E2041AA1E0F4
:104A1C007040BDE81EFF2FE1026106E2011086E145
:104A2C00020080E1031021E0AC4054E00C5074C053
:104A3C00041A81C17040BDC81EFF2FC1011681E34D
:104A4C0000E0A0E3014054E25D0000CA360074E3CC
:104A5C000000A0D3021101D27040BDD81EFF2FD18F
:104A6C00004064E2204054E21A0000AA0C4094E298
:104A7C000C0000CA144084E2205064E21035A0E11E
:104A8C003004A0E1110580E1022101E20211C1E331
:104A9C00A30F90E03114A2E083E09EE1A30FC001CC
:104AAC007040BDE81EFF2FE10C4064E2205064E230
:104ABC001034A0E13005A0E1110480E1021101E203
:104ACC00A30F90E00010A1E283E09EE1A30FC001D0
:104ADC007040BDE81EFF2FE1205064E210E58EE12E
:104AEC003034A0E1113583E13104A0E1021101E27F
:104AFC003104C0E1A30F80E083E09EE1A30FC0016D
:104B0C007040BDE81EFF2FE1000034E30800001ADE
:104B1C00026101E28000B0E10110A1E0010611E3A5
:104B2C0001404402FAFFFF0A061081E1000035E360
:104B3C001EFF2F11026103E28220B0E10330A3E0DB
:104B4C00010613E301504502FAFFFF0A063083E128
:104B5C001EFF2FE10C0034E1235A0CE00C00351140
:104B6C000700000A816090E183609211E5FFFF1A53
:104B7C00031021E0021101E20000A0E37040BDE847
:104B8C001EFF2FE1816090E10200A0010310A00143
:104B9C00836092111000000A0C0034E10100001A2D
:104BAC00016690E10C00001A0C0035E10300001ABC
:104BBC00036692E10200A0110310A0110600001A76
:104BCC00031021E0021101E27F1481E30F1681E34F
:104BDC000000A0E37040BDE81EFF2FE17F1481E3CD
:104BEC003E1781E37040BDE81EFF2FE170402DE9B8
:104BFC00FFC0A0E307CC8CE3214A1CE0235A1C1015
:104C0C000C0034110C0035115E00000B054044E023
:104C1C0003E021E0035692E10116A0E14C00000AEA
:104C2C000336A0E10152A0E3233285E1223C83E16B
:104C3C000224A0E1215285E1205C85E10064A0E121
:104C4C0002110EE2030055E102005601FD40A4E200
:104C5C00034C84E20100002AA330B0E16220A0E101
:104C6C00026056E00350C5E0A330B0E16220A0E141
:104C7C000106A0E302C7A0E302E056E003E0D5E0A2
:104C8C00026046200E50A0210C008021A330B0E120
:104C9C006220A0E102E056E003E0D5E0026046208D
:104CAC000E50A021AC008021A330B0E16220A0E125
:104CBC0002E056E003E0D5E0026046200E50A02151
:104CCC002C018021A330B0E16220A0E102E056E08B
:104CDC0003E0D5E0026046200E50A021AC018021FB
:104CEC0006E095E10D00000A0552A0E1265E85E183
:104CFC000662A0E18331A0E1A23E83E18221A0E122
:104D0C002CC2B0E1DBFFFF1A010611E30600001A0A
:104D1C00001081E10000A0E302C1A0E3D5FFFFEA8F
:104D2C00010611E3001081010000A003FDC054E254
:104D3C00070C5C8343FFFF8A03C055E002C056009A
:104D4C00A0C0B0010000B0E2041AA1E07040BDE8C0
:104D5C001EFF2FE102E10EE221168EE1AC4094E041
:104D6C000C5074C0041A81C17040BDC81EFF2FC105
:104D7C00011681E300E0A0E3014054E231FFFFEAB9
:104D8C0006E085E12FFFFFEA235A0CE00C0034E12A
:104D9C000C00350190FFFF0A0C0034E10600001AEC
:104DAC00014690E18CFFFF1A0C0035E183FFFF1ADE
:104DBC000200A0E10310A0E187FFFFEA0C0035E13F
:104DCC000400001A035692E168FFFF0A0200A0E1FA
:104DDC000310A0E180FFFFEA816090E183609211F3
:104DEC0048FFFF1A814090E174FFFF1A835092E153
:104DFC005EFFFF1A78FFFFEA8120A0E1022692E213
:104E0C000C00002A0900005A3E3EE0E3C22A53E09F
:104E1C000A00009A8135A0E1023183E3A03A83E1D4
:104E2C00020111E33302A0E1000060121EFF2FE12A
:104E3C000000A0E31EFF2FE1010690E10200001A22
:104E4C00020111E20201E0031EFF2FE10000A0E3CA
:104E5C001EFF2FE1020120E2000000EA021121E214
:104E6C008020B0E18130B0110300321142CCF0113E
:104E7C0043CCF0114700000A222CA0E1233C72E045
:104E8C00032082C0011020C0000021C0011020C0EE
:104E9C00003063B2190053E31EFF2F81020110E3AF
:104EAC00020580E3FF04C0E300006012020111E37D
:104EBC00021581E3FF14C1E300106112030032E11B
:104ECC002E00000A012042E2510390E0203063E200
:104EDC001113A0E1023100E20100005A001071E24E
:104EEC000000E0E2020550E30B00003A010450E33D
:104EFC000400003AA000B0E16110A0E1012082E2C0
:104F0C00FE0052E33800002A020151E3820BA0E0BC
:104F1C000100C003030080E11EFF2FE18110B0E10E
:104F2C000000A0E0020510E3012042E2F5FFFF1AA9
:104F3C0020C6B0E10006A0010C204202FF0810E3DD
:104F4C000004A001082042020F0610E30002A00199
:104F5C0004204202030510E30001A00102204202DA
:104F6C00020550E38000A0310020D2E2820B80A029
:104F7C00002062B2030080A1300283B11EFF2FE13A
:104F8C00000032E3021521E2020520020120820218
:104F9C0001304312CAFFFFEA8130A0E142CCF0E1BC
:104FAC0043CCF0111300000A030032E10200000AA6
:104FBC00000032E30100A0011EFF2FE1010030E1EF
:104FCC000000A0131EFF2F11FF0412E30200001AB1
:104FDC008000B0E1020180231EFF2FE1022492E247
:104FEC00020580321EFF2F31023100E27F0483E381
:104FFC00020580E31EFF2FE1422CF0E10100A0111D
:10500C00433CF0010010A0118024B0E18134B001C8
:10501C0001003001010580131EFF2FE10030A0E3D9
:10502C00010000EA023110E20000604200C0B0E171
:10503C001EFF2F014B3483E30010A0E10000A0E31E
:10504C000F0000EA012090E11EFF2F010030A0E3C9
:10505C00050000EA012090E11EFF2F01023111E250
:10506C000100005A000070E20010E1E201C0B0E162
:10507C0000C0A0010010A0010000A0035B3483E37A
:10508C0001324302023543E21720A0E301085CE33E
:10509C002CC8A02110204222010C5CE32CC4A021BE
:1050AC000820422210005CE32CC2A02104204222E2
:1050BC0004005CE302204222AC204230AC2152E0DE
:1050CC00823B43E0060000BA113283E010C2A0E13B
:1050DC00202062E202015CE33002A3E00100C00385
:1050EC001EFF2FE1202082E211C2A0E1202062E20B
:1050FC008C0090E13102A3E0AC0FC0011EFF2FE148
:10510C00FFC0A0E3A02B1CE0A13B1C100C00321133
:10511C000C0033113E00000A032082E001C020E0A5
:10512C008004B0E18114B0111000000A0233A0E336
:10513C00A00283E1A11283E1903181E002010CE233
:10514C00020551E38110A031A31F81318330A031BE
:10515C00010080E17F20C2E2FD0052E30F00008AD3
:10516C00020153E3820BA0E00100C0031EFF2FE1FC
:10517C00000030E302C10CE28114A001A0048CE118
:10518C00A10480E17F2052E2FF3072C2820B80C109
:10519C001EFF2FC1020580E30030A0E3012052E284
:1051AC00350000CA190072E3020100D21EFF2FD194
:1051BC00002062E28010B0E13112A0E1202062E216
:1051CC0010C2A0E16100B0E10000A0E28C3093E1DC
:1051DC00AC0FC0011EFF2FE1000032E302C100E260
:1051EC008000A0010205100301204202FBFFFF0A10
:1051FC000C0080E1000033E302C101E28110A00148
:10520C000205110301304302FBFFFF0A0C1081E180
:10521C00C0FFFFEAA13B0CE00C0032E10C003311A3
:10522C000500000A02C1D0E302C1D113E9FFFF1A45
:10523C00010020E0020100E21EFF2FE1000030E33C
:10524C00020130130100A0010000311302013113DF
:10525C000D00000A0C0032E10100001A8024B0E1BC
:10526C000900001A0C0033E10200001A8134B0E18D
:10527C000100A0110400001A010020E0020100E26C
:10528C007F0480E3020580E31EFF2FE17F0480E3AF
:10529C00030580E31EFF2FE1FFC0A0E3A02B1CE061
:1052AC00A13B1C100C0032110C0033113A00000A07
:1052BC00032042E001C020E08114B0E18004A0E1B1
:1052CC001C00000A0132A0E3211283E1203283E1A9
:1052DC0002010CE2010053E18330A0317D20A2E2F7
:1052EC0002C5A0E3010053E1013043200C008021F2
:1052FC00A10053E1A1304320AC008021210153E1F6
:10530C00213143202C018021A10153E1A131432003
:10531C00AC0180210332B0E12CC2B011F0FFFF1AB6
:10532C00FD0052E39DFFFF8A010053E1820BA0E0D8
:10533C000100C0031EFF2FE102C10CE2A0048CE1AE
:10534C007F2092E2FF3072C2820B80C11EFF2FC100
:10535C00020580E30030A0E3012052E28FFFFFEA58
:10536C00000032E302C100E28000A001020510033C
:10537C0001204202FBFFFF0A0C0080E1000033E336
:10538C0002C101E28110A0010205110301304302A8
:10539C00FBFFFF0A0C1081E1C4FFFFEAA13B0CE00C
:1053AC000C0032E10500001A8024B0E1B6FFFF1AB0
:1053BC000C0033E1AFFFFF1A0100A0E1B2FFFFEADE
:1053CC000C0033E10300001A8134B0E197FFFF0AAF
:1053DC000100A0E1ACFFFFEA02C1D0E302C1D1138E
:1053EC00DEFFFF1A0221D0E3A2FFFF1A0231D1E344
:1053FC008EFFFF1AA4FFFFEA8020A0E17F0452E396
:10540C000800003A9E30A0E3222C53E00700009ADB
:10541C000034A0E1023183E3020110E33302A0E186
:10542C00000060121EFF2FE10000A0E31EFF2FE121
:10543C00610072E30100001A8024B0E10200001A3E
:10544C00020110E20201E0031EFF2FE10000A0E3C5
:10545C001EFF2FE18020B0E10800002A7F0452E3F8
:10546C000600003A9E30A0E3222C53E00500004ACF
:10547C000034A0E1023183E33302A0E11EFF2FE1EF
:10548C000000A0E31EFF2FE1610072E30100001A8F
:10549C008024B0E10100001A0000E0E31EFF2FE1C0
:1054AC000000A0E31EFF2FE1DFF830D0002103E065
:1054BC000B4B5B58435004310A480B4B42189A4231
:1054CC00F6D30A4A02E0002342F8043B084B9A4206
:1054DC00F9D3FCF759F8FBF77FF8FEE700C0002082
:1054EC007860000800000020140000201400002048
:1054FC00BC060020FEE700000030A0E1022080E0A6
:10550C00020053E11EFF2F010110C3E4FBFFFFEA71
:10551C00000000000DC0A0E1F8DF2DE904B04CE262
:10552C0028D04BE2F06F9DE81EFF2FE10DC0A0E1EB
:10553C00F8DF2DE904B04CE228D04BE2F06F9DE887
:04554C001EFF2FE12E
:10555000C1C1C100C3C3C300C4C4C400A08601004C
:10556000400D0300801A060000350C0040420F0079
:1055700080841E0000093D0000127A000024F4001F
:1055800000366E010048E801006CDC0200000000FB
:1055900000000000010203040607080900000000E3
:1055A00001020304543D0000000000000000005F01
:1055B00000000007000700147F147F14242A7F2AAC
:1055C0001223130864623649552250000503000077
:1055D000001C2241000041221C00082A1C2A080845
:1055E000083E08080050300000080808080800605D
:1055F00060000020100804023E5149453E00427FF1
:10560000400042615149462141454B311814127FF7
:105610001027454545393C4A494930017109050380
:105620003649494936064949291E003636000000E8
:105630005636000000081422411414141414412298
:105640001408000201510906324979413E7E1111C8
:10565000117E7F494949363E414141227F414122E5
:105660001C7F494949417F090901013E41415132AD
:105670007F0808087F00417F41002040413F017FB3
:10568000081422417F404040407F0204027F7F0493
:1056900008107F3E4141413E7F090909063E4151C4
:1056A000215E7F09192946464949493101017F0197
:1056B000013F4040403F1F2040201F7F2018207F97
:1056C00063140814630304780403615149454300DB
:1056D000007F4141020408102041417F0000040284
:1056E00001020440404040400001020400205454A4
:1056F00054787F484444383844444420384444482B
:105700007F3854545418087E090102081454543C3C
:105710007F0804047800447D40002040443D0000A0
:105720007F10284400417F40007C041804787C08E6
:1057300004047838444444387C14141408081414BD
:10574000187C7C080404084854545420043F444006
:10575000203C4040207C1C2040201C3C4030403CF1
:1057600044281028440C5050503C4464544C44008D
:105770000836410000007F0000004136080008089C
:105780002A1C08081C2A080800000000000000006D
:105790000000000808080808080808000808121295
:1057A0001200000000000000004848247F2424125A
:1057B0007F120909083E4909093E4848493E084701
:1057C00025271010080804725271060909092622BB
:1057D00025291129460808080000000000000000E3
:1057E000080404020202020204040804080810105B
:1057F00010101008080400082A1C2A0800000000E5
:105800000000000008083E0808000000000000003A
:1058100000000000080C0400000000003E00000032
:105820000000000000000000000000181810101018
:1058300008080804040402021C2251514949494540
:1058400045221C080C0A080808080808083E1E2102
:1058500040404020100804027F1F204040201E20AE
:105860004040201F30282422217F20202020207F1C
:105870000101011F20404040201F380402011D2368
:10588000414141221C7F40202010100808040402DE
:105890001C224141221C224141221C1C2241414127
:1058A000625C4020100E00000C0C0000000C0C008C
:1058B0000000000C0C0000000C0C08040040300C30
:1058C0000201020C304000000000007F00007F0059
:1058D000000000010618204020180601003E41404B
:1058E00040300808080008081C2241495555553920
:1058F00001023C081414222241417F4141411F21F1
:1059000021211F21414141211F3C4201010101018F
:105910000101423C1F2242424242424242221F7F38
:105920000101011F01010101017F7F0101013F010F
:1059300001010101013C4201010179414141423C27
:10594000414141417F4141414141411C0808080812
:1059500008080808081C1E10101010101010101154
:105960000E2111090503030509112141010101015E
:105970000101010101017F416355554949414141FF
:10598000414141414143434549515161411C2241FB
:10599000414141414141221C1F21414141211F01FF
:1059A0000101011C2241414141414951225C1F2119
:1059B000414141211F091121411C224101021C20AA
:1059C0004041221C7F080808080808080808084108
:1059D0004141414141414141221C41412222222277
:1059E000141414080841414141494949555563413E
:1059F0004122221408080814222241414122141491
:105A00000808080808087F40402010080402010127
:105A10007F1C0404040404040404041C01020204A2
:105A2000040408080810100E0808080808080808E8
:105A3000080E0814224100000000000000000000D1
:105A4000000000000000007F0408000000000000CB
:105A50000000000000003E41407E4141615E0101C6
:105A6000011D2341414141231D0000003C42010131
:105A70000101423C4040405C6241414141625C0066
:105A800000001C22417F0101423C1C04040E04045E
:105A900004040404040000005E6141615E40211EB4
:105AA0000101013D434141414141410808000808CD
:105AB000080808080808001000181010101010122C
:105AC0000C010101211109070911214104040404F9
